:020000000C945E
:1000020044000C9400000C9400000C9400000C942A
:1000120000000C9400000C9400000C9400000C945E
:1000220000000C9400000C9400000C9400000C944E
:1000320000000C9400000C9400000C9400000C943E
:1000420000000C9400000C9400000C9400000C942E
:1000520000001027E80364000A00010000100001FC
:1000620010000100416C6920536564616768690092
:1000720080C00C00600266000C006C026600020088
:10008200780272000000F894EE27ECBBF1E0FBBFAF
:10009200EBBFE5BFF8E1F1BDE1BD8DE0A2E0BB271A
:1000A200ED938A95E9F780E098E0A0E6ED93019759
:1000B200E9F7E4E7F0E085919591009761F0A59169
:1000C200B59105901590BF01F00105900D92019731
:1000D200E1F7FB01F0CFEFE5EDBFE8E0EEBFC0E6F0
:1000E200D2E00C947400E0E0EBB9E8E1EAB9E6E8AA
:1000F200E0BDE0E0E0BDE3E3E9B9A0E1AAD00E94FF
:1001020058011E2FA12F0E945C01A12F7AD0133417
:1001120021F46BD00E94630120C01E3441F40E947E
:100122006301A0E6B2E01BD00E94630116C0133641
:1001320041F400E0083120F40E9463010F5FFACF1E
:100142000CC01D3451F40E9463014FD0E0E0EA93E9
:10015200A0E03ED0ACE6B2E06BD0D1CFFFCFBA93F5
:10016200AA931A9310E0A981BA81EE27A10FBE1FAC
:10017200EC91E03051F0A981BA81EE27A10FBE1FA8
:10018200AC910E945C011F5FEECF60C0AA93E5B301
:10019200EF70AE2FE881E07FEA2BE5BB85E08A9520
:1001A200F1F7AA9A8DE08A95F1F7AA988DE08A95DF
:1001B200F1F70C946101AA93A881E8DFE881E29546
:1001C200E883A881E3DF85E88A95F1F70C94610161
:1001D200AA93E881F0E0E858FD4FE081A981AE0FD3
:1001E200EADF5980488022960895A2E00E946901C0
:1001F200ACE0E1DFA1E00E946901E0E04E2E5E2E5C
:100202000895AA93A881AA3011F0571450F0E0E0A3
:10021200EA934394A42DDCDFA881AA3011F40C9454
:1002220061015394A89AA881C6DFA8980C94610131
:10023200BA93AA931A93A981BA81ED91A983BA8339
:100242001E2FE03019F0A12FDCDFF5CF18812396A5
:100252000895AA93E4B3E06FE4BBA29AA09AA19A8C
:10026200AA98A898A9987880E881E058E0937A0241
:10027200E881E054E0937B02A4E1B0E00E947701C0
:100282000E946F010E946F010E946F01A0E27EDF57
:1002920088EC90E00197F1F7A8E28DDFA4E08BDF14
:1002A200A5E889DFA6E087DFA0DF0C9461015F9BF0
:1002B200FECFECB10895AA935D9BFECFE881ECB925
:1002C20021960895ADE00E945C01AAE00C945C01C5
:1002D2000E94DC00A3E0B0E00C947701A0E30E944E
:1002E200C70088EC90E00197F1F70895109639F075
:1002F20080ED97E00197F1F7A8951197C9F7089556
:00000001FF
