:0A0000000C943C000C946C000C946E
:10000A0076000C9483000C9400000C9400000C946D
:10001A0000000C9400000C9400000C9400000C9456
:10002A0000000C9400000C9400000C9400000C9446
:10003A0000000C9400000C9400000C9400000C9436
:10004A0000000C9400000C940000000080C0010025
:10005A002D4E414E00494E46000001000500540055
:10006A000200600256000100640258000000F89481
:10007A00EE27ECBBF1E0FBBFEBBFE5BFF8E1F1BD5A
:10008A00E1BD8DE0A2E0BB27ED938A95E9F780E018
:10009A0098E0A0E6ED930197E9F7E4E6F0E08591B0
:1000AA009591009761F0A591B59105901590BF01C2
:1000BA00F00105900D920197E1F7FB01F0CFEFE512
:1000CA00EDBFE8E0EEBFC0E6D2E00C949000EA9300
:1000DA00EFB7EA93AB9902C0539402C0EAE05E0E0E
:1000EA0009C0EA93EFB7EA93AB9902C05A9402C0E7
:1000FA00EAE05E1AE991EFBFE9911895AA93EA93AB
:10010A00EFB7EA93E5B3A8E0EA27E5BBE991EFBFC9
:10011A00E991A991189500E010E0E0E0E5BBE8E07C
:10012A00E4BBEBB7E06EEBBFEAE0E5BFE0E0E4BFBB
:10013A00E0EEEABFA0E17CD07894E0E0EA93A0E0A8
:10014A0034D0E52DF0E0E7FDFFEFFA93EA93D8010A
:10015A000E944A01D8015BD0A0E244D0A0E242D07A
:10016A00A2E30E947801E9CFFFCFAA93E5B3EF702B
:10017A00AE2FE881E07FEA2BE5BB85E08A95F1F7AF
:10018A00AA9A8DE08A95F1F7AA988DE08A95F1F7F7
:10019A007AC0AA93A881E9DFE881E295E883A88179
:1001AA00E4DF85E88A95F1F76EC0AA93E881F0E06A
:1001BA00E05AFD4FE081A981AE0FEBDF49807880DC
:1001CA0022960895A2E0E5DFA3E00E947801ACE060
:1001DA00E0DFA1E0DEDFA3E00E947801E0E07E2E0E
:1001EA004E2E0895AA93A881AA3011F0461448F019
:1001FA00E0E0EA937394A72DD8DFA881AA3009F426
:10020A0042C04394A89AA881C4DFA8983CC0BA9374
:10021A00AA931A93A981BA81ED91A983BA831E2F51
:10022A00E03019F0A12FDEDFF5CF1881239608956B
:10023A00AA93E4B3E06FE4BBA29AA09AA19AAA98FF
:10024A00A898A9986880E881E058E0936202E8815A
:10025A00E054E0936302A4E10E9478010E947B01CA
:10026A000E947B010E947B01A0E27FDF88EC90E084
:10027A000197F1F7A8E28DDFA4E08BDFA5E889DF1B
:10028A00A6E087DF9FDF21960895BA93AA93A991E2
:10029A00B991E991F99130962AF4E095F095319661
:1002AA006DE26D93E89480E197E20DD088EE93E0D9
:1002BA000AD084E6992707D08AE005D06E2F10D09D
:1002CA0066276C9308956627E817F90720F0639567
:1002DA00E81BF90BC9F7662311F416F00895689420
:1002EA00605D6D930895B0E00C948301A0E30E94D1
:1002FA00BA0088EC90E00197F1F70895109639F06A
:10030A0080ED97E00197F1F7A8951197C9F708953D
:00000001FF
