:0A0000000C943C010C9400000C94D9
:10000A0000000C9400000C9400000C9400000C9466
:10001A0000000C9400000C9400000C9400000C9456
:10002A0000000C9400000C9400000C9400000C9446
:10003A0000000C9400000C9400000C9400000C9436
:10004A0000000C9400000C940000050720600000DA
:10005A0000000000005F00000007000700147F1482
:10006A007F14242A7F2A12231308646236495522F0
:10007A00500005030000001C2241000041221C0020
:10008A00082A1C2A0808083E080800503000000800
:10009A0008080808003030000020100804023E5109
:1000AA0049453E00427F400042615149462141454F
:1000BA004B311814127F1027454545393C4A4949A6
:1000CA003001710905033649494936064949291E4D
:1000DA00003636000000563600000008142241148B
:1000EA001414141441221408000201510906324959
:1000FA0079413E7E1111117E7F494949363E41417F
:10010A0041227F4141221C7F494949417F09090116
:10011A00013E414151327F0808087F00417F41007A
:10012A002040413F017F081422417F404040407FE8
:10013A000204027F7F0408107F3E4141413E7F094D
:10014A000909063E4151215E7F0919294646494956
:10015A00493101017F01013F4040403F1F204020BB
:10016A001F7F2018207F6314081463030478040394
:10017A00615149454300007F414102040810204172
:10018A00417F000004020102044040404040000157
:10019A0002040020545454787F4844443838444474
:1001AA004420384444487F3854545418087E09017E
:1001BA0002081454543C7F0804047800447D40002B
:1001CA002040443D00007F10284400417F40007CCD
:1001DA00041804787C0804047838444444387C14AD
:1001EA00141408081414187C7C080404084854548D
:1001FA005420043F4440203C4040207C1C204020A6
:10020A001C3C4030403C44281028440C5050503C80
:10021A004464544C44000836410000007F0000004A
:10022A004136080002010204027F4141417F000178
:10023A0003070F1F3F7FFF00416C6920536564610C
:10024A0067686900393735323133373800000100C1
:10025A002D4E414E00494E4600000C0060024202FB
:10026A0009006C024E020100950258020000F8943F
:10027A00EE27ECBBF1E0FBBFEBBFE5BFF8E1F1BD58
:10028A00E1BD8DE0A2E0BB27ED938A95E9F780E016
:10029A0098E0A0E6ED930197E9F7E4E6F2E08591AC
:1002AA009591009761F0A591B59105901590BF01C0
:1002BA00F00105900D920197E1F7FB01F0CFEFE510
:1002CA00EDBFE8E0EEBFC0E6D2E00C946C012897DF
:1002DA00E4E0EE83E0E0EF830FE310E02FE130E0AB
:1002EA0040E050E0E4E5F0E0E883F983DE0154D130
:1002FA00B8D10E94750AE0E0EA93EA93A0E6B2E078
:10030A000E94C606E0E0EA93E5E3EA93ACE6B2E0CF
:10031A000E94C6060E94790AE7E3EA93EFE3EA93AA
:10032A00EBE5EA93AFE30E940307EBE5EA93EFE319
:10033A000E947F0AE7E3EA93EFE3EA93E7E30E9486
:10034A00850AE7E3EA93E0E2EA93EDE20E94850A8E
:10035A00E5E6EA93E0E20E947F0AE9E4EA93E0E054
:10036A00EA93E5E60E94850AE9E4EA93E0E0EA9383
:10037A00EBE3EA93AEE00E940307E4E3EA93E6E1E3
:10038A00EA93EDE20E94850AE4E3EA93E6E1EA935E
:10039A00E4E30E94890AEEE0EA93EBE30E94890A09
:1003AA00E7E0EA93EEE3EA93A7E00E940307E4E3B7
:1003BA00EA93E7E0EA93E1E3EA93A7E00E940307FE
:1003CA00EEE3EA93E7E00E94900AE1E3EA93E7E0CA
:1003DA00EA93E1E3EA93A3E00E940307E1E3EA93E5
:1003EA00E3E00E94900A0E94790AE0E00E94960ADD
:1003FA00042E052A79F4AE81BF812A1B3B0B0E9489
:10040A009D0A14F043E050E00E94A90A14F041E06A
:10041A0050E03CC0E1E0F0E0E417F50791F4EE812A
:10042A00FF812E0F3F1F0E949D0A14F042E050E008
:10043A00AE81BF81A20FB31FDF9714F040E050E0F6
:10044A0025C0E2E0F0E0E417F50791F4EE81FF81C0
:10045A002E0F3F1F0E94B20A14F041E050E0AE8115
:10046A00BF81A20FB31FDF9714F043E050E00EC024
:10047A00AE81BF812A1B3B0B0E94B20A14F040E0F6
:10048A0050E00E94A90A14F042E050E0E1E00E9424
:10049A00960A0E94750AA9CFFFCF0000C09A0000F1
:1004AA000895C098C498C59808951A93F6DF19B3A9
:1004BA00C098E12F19910895AA931A93E0E0EABB34
:1004CA00C19AC298E981EF5F1E2F10FF02C0C49A39
:1004DA0001C0C49811FF02C0C59A01C0C598E5DFE2
:1004EA00E078E9F718811FC1AA93A981E5DF0E9484
:1004FA00BD0A19C1E0919302EA93E0919202EF7367
:10050A00E064AE2FF1DFE0919302EA93E091940266
:10051A00E86BAE2FE9DF0895AA93E981E09392028E
:10052A00E295EF70E695E695E0939302E881E09311
:10053A009402E0DFF8C0A0919202AF5FA09392020A
:10054A00A03818F0E0E0E0939202E0919202EF7393
:10055A0031F4E0919202EA93A0919402DDDF0895CA
:10056A00AA93A0919302A8DFC29A0E94BD0A21967B
:10057A000895A0919302A0DFE0E0EABBC19AC29A73
:10058A0094DF0895AA93E981EA93E9810E94C60A51
:10059A00F0DFB0DFEEDFC7C0BA93AA931A93B89A16
:1005AA00B99ABA9ABB9AC39ABC9ABD9A7ADFC39887
:1005BA00A4E6B0E00E94B20BC39A10E0123040F4F5
:1005CA001A93AFE391DF1A931395A0EC8DDFF6CF60
:1005DA00E1E0E0937502E0E0E0937602E981FA81D6
:1005EA003097A9F0A981BA810E94E20BE0937902BF
:1005FA00F0937A0212960E94E20BE0938E02F09335
:10060A008F02A981BA8114960E94E20B0AC0E0E027
:10061A00F0E0E0937902F0937A02E0938E02F0938D
:10062A008F02E0939002F0939102E1E0E0937B0263
:10063A00E0937C02E0937D02EFEFE0937E02E1E03B
:10064A00E0938502E6E8F2E0FA93EA93EFEFEA93A1
:10065A00A8E0B0E00E94F40904D0E1E018812396F2
:10066A0008950E94090C00E030E0E0917602E03043
:10067A0009F00FEF383078F4E0E0EA93A32F3F5FF8
:10068A004BDF10E0A12F1F5FA03820F4A02F0E949B
:10069A00CC0AF8CFEFCFE0E0EA93A0E03DDFE0E05C
:1006AA00EA93A0E09ED30E94100C24960895AA9380
:1006BA001A930A93AC81A03818F4AB81A03408F0DD
:1006CA0016C0EC81EA93AC815DDF1E2F13DFEB814C
:1006DA00E770A1E00E94C00B0E2FEA81E03011F012
:1006EA00102B03C0E02FE0951E23A12F39DF1981BB
:1006FA00088125960895AA93A981A03818F4A8819B
:10070A00A03410F0E0E00FC0E981EA93A9813ADF52
:10071A001E2EE881E770A1E00E94C00BE12111F0D2
:10072A00E1E001C0E0E022960895AA931A93ED81D0
:10073A00EA93AD8127DF1E2FDDDEE981E63011F075
:10074A00E73039F4EB81EA93AA810E940F0AEB831E
:10075A0008C0E33021F4EB81E095EB8302C0E0307E
:10076A0021F4EA81E0951E2302C0E23029F4EA81ED
:10077A00AB81EA231E2B0EC0E13029F4EA81AB815A
:10078A00EA231E2707C0E43029F4EA81E095AB8109
:10079A00EA2B1E23A12F0E94CC0A188126960895BF
:1007AA00AA9323970E94070CA889A03848F4AF851A
:1007BA00A03430F4AE85A03019F0AD85A03009F42C
:1007CA00C8C1EE85E887A889BB27EE850E94D00AB2
:1007DA00A138E0E0BE0720F0A889E0E8EA1BEE872E
:1007EA002D85AF85BB27ED850E94D00AA134E0E0B4
:1007FA00BE0720F0AF85E0E4EA1BED87A985A530A6
:10080A0011F00C946204EC85E13009F4A2C1E330E2
:10081A0039F4E0919002F0919102309709F499C16C
:10082A000885ED85E695E695E6953E2FE22FE77079
:10083A0019F4AD852A17E1F0A02FBB27E32F0E94F8
:10084A00D40AAA85BB850E94D80A2695269526959C
:10085A00532F5F935F5FE22FAF91EA1748F0102F93
:10086A00E12F1150E03019F00E94DD0AF9CFF1CFE3
:10087A00AE850A1711F1EE85AA85BB85F0E00E94C4
:10088A00D80AED85E77009F03F5F20E02F932F5FCC
:10089A00E32FAF91AE1788F41E851F931F5FE02FD9
:1008AA00AF91AE1718F40E94DD0AF7CFEE85AE813C
:1008BA00BF81F0E00E94D80AE9CFEF85E7703E2FAA
:1008CA00ED85E03011F40C94AE05EA85FB85EE83E4
:1008DA00FF8310E00889303011F00C94DA04AD85FA
:1008EA00A83010F40C94D504E985E03011F0E33017
:1008FA0009F402C0E63009F402C0E73009F402C084
:10090A00E53009F402C0E83009F402C0E93021F404
:10091A000A93E8890E94C60A1F931F5FEE85AF916A
:10092A00AE17B8F5A985A53061F423DEE3DD0E9490
:10093A00EA0AFA93EA931DDEAE2F0E94560AFBDDFD
:10094A0027C0E985E83011F450E00EC0E93011F40F
:10095A005FEF0AC00E94EA0A0E94F30A5E2FE98545
:10096A00E63011F0E73021F40E94F90A5E2F06C042
:10097A00E33011F4509502C0E03021F4A52F0E9413
:10098A00CC0A06C00E94FD0AEFEFEA93AD85CDDEE0
:10099A00C3CFEF85E85FEF87ED85E850ED87D1C0DB
:1009AA005D8520E0E0E0ED877AC0E32FAD85AE0FEC
:1009BA00A93020F42D85E0E0ED8703C0E8E0E31BD1
:1009CA002E2F3A93A22F0E94040A4E2FE985E53072
:1009DA00F1F41F931F5FEE85AF91AE17B8F40E9432
:1009EA00030BAE2FE32F0E94C80B0E940A0BE32FC2
:1009FA00A42F0E94C80BE095E1215E2B0E94EA0A0F
:100A0A00FA93EA93A52F0E94560AE3CF2CC0E83046
:100A1A0011F450E003C0E930A9F45FEF0E94F90A2B
:100A2A00AE2FE32F0E94C00B5E2F1F931F5FEE8530
:100A3A00AF91AE1730F40E94FD0A4A93A0E075DE2A
:100A4A00F4CF11C01F931F5FEE85AF91AE1758F414
:100A5A000E94150BAE2FE32F0E94C00BEA934A9314
:100A6A00AD8563DEEFCFED85E03009F472C0AD8568
:100A7A00A83028F4ED85E21B5E2FE0E003C0532F77
:100A8A00ED85E850ED8710E0EF85E85FEF87E8E055
:100A9A00E31B2E2F0889EA85FB85EE83FF83E52F6A
:100AAA00F0E0E85CFD4F4491E985E530F1F41F93ED
:100ABA001F5FEE85AF91AE17B8F40E94030BAE2FFD
:100ACA00E22F0E94C00B0E940A0BE22FA42F0E9461
:100ADA00C00BE095E1215E2B0E94EA0AFA93EA93A1
:100AEA00A52F0E94560AE3CF2CC0E83011F450E03B
:100AFA0003C0E930A9F45FEF0E94F90AAE2FE22F92
:100B0A000E94C80B5E2F1F931F5FEE85AF91AE1731
:100B1A0030F40E94FD0A4A93A0E007DEF4CF11C028
:100B2A001F931F5FEE85AF91AE1758F40E94150B05
:100B3A00AE2FE22F0E94C80BEA934A93AD85F5DDEA
:100B4A00EFCFE885AA85BB850E94220BEA87FB873F
:100B5A00B7CE0E940E0C619608950E94260B24F0CF
:100B6A00E0E0F0E00C940D0AA881B981A038E0E039
:100B7A00BE0724F0EFE7F0E00C940D0AE881F98152
:100B8A000C940D0A0E94260B24F0E0E0F0E00C948D
:100B9A000D0AA881B981A034E0E0BE0724F0EFE392
:100BAA00F0E00C940D0AE881F9810C940D0AAA93DD
:100BBA00E981EA93E981EA93A091750278DD0C94C0
:100BCA000D0ABA93AA9323970E942D0B8F01002E28
:100BDA00012A19F4E0E0F0E058C00E94340B0F82B9
:100BEA000E94340B0E820E94340B0886EB85A8857E
:100BFA00EA1718F4E0E0F0E048C0F8010F5F1F4F71
:100C0A005491E52FA885AE0FEB85EA1718F0E0E0BE
:100C1A00F0E03BC0EE81E695E695E6954E2FEE8133
:100C2A00E77009F04F5FEF81E03091F0A985BA854E
:100C3A00EC93A885EB85EA1BF0E0DF01EF810E94C7
:100C4A00D40ADF01E42F0E94D40AE00FF11F1DC06D
:100C5A009801E52FF0E00E0F1F1FA885AF5FA88748
:100C6A00A150EB85AE1758F4F9012F5F3F4FA491BD
:100C7A00B0E0E42F0E94D40A0E0F1F1FEECFF90135
:100C8A00E491A985BA85EC93F8010E940E0C2C9682
:100C9A000895E0E0E0937702A0917802BB270E94D2
:100CAA00390B0E94D00AE0917C020E94D00A6ADFC6
:100CBA00E09378020895AA9321970E942D0B30970A
:100CCA0011F40C94C106AF81AA3009F451C0EF8126
:100CDA00EA93DE01179675DFAF01309719F40E9487
:100CEA000E0C13C3E0917B02AE81EA0F3E2FA09156
:100CFA007702BB27E32F0E94220B8F010138E0E025
:100D0A001E0718F0032F1127C4DFE0917702EA9338
:100D1A00E0917802EA93E885EA930E94390BEA9314
:100D2A00E1E0EA935A934A93A6E03ADDE09177022A
:100D3A00AE81EA0FEA93E0917802EA93E0917B02AE
:100D4A00EA930E94390B0E94400BE0917702EA93E2
:100D5A00A09178020E94390BEA0FEA933A93E09144
:100D6A007C020E94400BE0E8F0E0E017F10721F472
:100D7A0090DF0E940E0CC9C2009377020E940E0CEB
:100D8A00C4C2BA93AA931A93EC81EA93AC8129D08C
:100D9A00A981BA81ED91A983BA831E2FE03019F097
:100DAA00A12F89DFF5CF18810C94020AAA93EA8150
:100DBA00EA93EA81EA93E0917E02AA81EA2319F092
:100DCA00E091750202C0E0917602AE2F70DCE881F4
:100DDA00EE0FE883E03011F4E1E0E883E8810C9457
:100DEA00540AAA93A981BB27B8DEE0937702A881A7
:100DFA00BB27C8DEE09378020C940D0AAA932B97BE
:100E0A000E94070CAC89BB27A8DEEC8BAA89BB27FA
:100E1A00A4DEEA8BAB89BB27A0DEEB8BA989BB27B3
:100E2A009CDEE98BEA89E0937702E989E09378020C
:100E3A00E1E0E887E989AB89EA1771F51C89AA8993
:100E4A001A1731F41A93EC89EA93A1E0AFDFC7C00D
:100E5A00AA891A1730F4EA89E11B0E2F41E050E003
:100E6A0006C0AA89E12FEA1B0E2F4FEF5FEF3B89DD
:100E7A00E0E0EE830E944A0B38F41A933A933395D2
:100E8A00AA8594DFEF83F6CFEF81E887140FE02F6E
:100E9A000150E03061F7A3C0EA89AC89EA1739F555
:100EAA003B89A9893A1730F4E989E31B2E2FE1E03F
:100EBA00F0E006C0A989E32FEA1B2E2FEFEFFFEF20
:100ECA00ED87FE871C89E0E0EE830E944A0B30F42E
:100EDA001A9313950E94520BEF83F7CFEF81E8879D
:100EEA00ED853E0FE22F2150E03061F778C0E0E057
:100EFA00EE830E944A0B10F00C94F4071C893B897C
:100F0A00E1E02E2F0E2FAA89BB27EC890E94560BEF
:100F1A00AD0155232AF40FEFFA010E94BC0BAF0171
:100F2A00FA01EE0FFF1FEF87F88BA989BB27EB8920
:100F3A000E94560BAD87BE87AE85AA233AF42FEFDF
:100F4A00ED85FE850E94BC0BED87FE87ED85FE854B
:100F5A00EE0FFF1FEB87FC871A933A93A1E026DF77
:100F6A00E887E0E0E987EA87AD85BE854A175B072F
:100F7A00BCF0100FEB85FC850E945A0BA985BA8537
:100F8A004A175B072CF4320FAF85B8890E94610BB0
:100F9A001A930E94520BE887EA89E11751F718C0A1
:100FAA00320FEF85F8890E945A0BED85FE85A985D7
:100FBA00BA85EA17FB072CF4100FAB85BC850E9493
:100FCA00610B1A930E94520BE887E989E31741F7EC
:100FDA00EB89EF5FEB8BE989EF5FE98B8ACF0E94A0
:100FEA000E0C65960895BA93AA9323970E94070C4C
:100FFA00ED85E887E0917D02EF83E0917502EE834B
:10100A00AA89BB27EF850E94220B8F01A989BB27DA
:10101A00E8890E94560B9D01A989BB27E8890E948D
:10102A00220BAF01E885E178E13871F0E885E078D4
:10103A00F1F4AD85BE85EAE5F0E00E94680B1CF08C
:10104A000E94710B0CF413C0332312F00E94760B2A
:10105A00AF81A23020F02230E0E03E070CF407C056
:10106A000E947A0B21F40A93A22FA150A0DDE885F1
:10107A00E878E83891F0E885E078C9F4AD85BE856E
:10108A00A25FBE4F0E94830B3CF0AD85BE85A25F76
:10109A00BE4F0E94880B0CF40AC00E948D0B38F0D8
:1010AA000E94940B21F40A93A42FAF5F80DDAA89D2
:1010BA00BB27EF850E94560B8D01112312F40C9465
:1010CA00AB08E885E278E23891F0E885E07811F536
:1010DA00AD85BE85A65ABF4F0E94830B3CF0AD85F5
:1010EA00BE85A65ABF4F0E94880B0CF413C0332347
:1010FA0012F00E94760BAF81A23020F02230E0E09D
:10110A003E070CF407C00E947A0B21F40A93A22F1F
:10111A00A1504DDDE885E478E43871F0E885E0789F
:10112A00A9F4AD85BE85EEE0F1E00E94680B1CF0E3
:10113A000E94710B0CF40AC00E948D0B38F00E94B9
:10114A00940B21F40A93A42FAF5F31DDAA89BB2740
:10115A00E8890E94220B8F01A989BB27EF850E948B
:10116A00560B9D01A989BB27EF850E94220BAF016F
:10117A00E885E178E13881F0E885E078F1F4EB85FB
:10118A00FC85AD85BE85AE17BF072CF0E985FA85CB
:10119A00EA17FB070CF411C033237AF00E94760B8E
:1011AA00AF81A23050F0E02FEE5F0E949D0B29F430
:1011BA00E02FEF5FEA93A22FFADCE885E878E838B7
:1011CA0071F0E885E078C1F4AD85BE85E8E6F1E026
:1011DA000E94680B1CF00E94710B0CF40DC00E9457
:1011EA008D0B50F0E02FEE5F0E94A50B29F4E02F43
:1011FA00EF5FEA93A42FDBDCAA89BB27E8890E9468
:10120A00560B8D01112312F40C945B09E885E278E0
:10121A00E23871F0E885E07809F5AD85BE85E4EB42
:10122A00F0E00E94680B1CF00E94710B0CF416C0CF
:10123A003323A2F00E94760BAF81A23020F0023055
:10124A00E0E01E070CF40AC0E02FE2500E949D0B5A
:10125A0029F4E02FE150EA93A22FA9DCE885E4788B
:10126A00E43891F0E885E07809F5AD85BE85AC549F
:10127A00BF4F0E94830B3CF0AD85BE85AC54BF4F77
:10128A000E94880B0CF412C00E948D0B20F00230D1
:10129A00E0E01E070CF40AC0E02FE2500E94A50B02
:1012AA0029F4E02FE150EA93A42F81DC0E940E0C6E
:1012BA0063960895AA930E94090CAF81BB27ED811A
:1012CA000E94560B4ADC1E2FAF81BB27ED810E947C
:1012DA00D00A43DC0E2FAE81BB27EC810E94560B4D
:1012EA0051DC3E2FAE81BB27EC810E94D00A4ADC3A
:1012FA002E2F1A933A930A93A32F80DD1A932A93D7
:10130A000A93A22F7BDD0E94100C28960895AA93B7
:10131A000E94070CA985A03818F4A885A03408F003
:10132A0050C050917D02E52F5150E03011F40C94D9
:10133A00E609EF81E03009F444C0EF81E150EF8320
:10134A00EF5F0E2FE02FF0E0A5E0B0E0AE1BBF0B81
:10135A00FD010E94D00B0E94D50B9F0110E0AE81C7
:10136A00A03459F40E94AD0B1A93A02FA3DF0E9458
:10137A00AD0B0A93A12F9EDF0FC00E94AD0B1A93EB
:10138A000A93EA85F0E0FA93EA93E0E0F0E0FA9350
:10139A00EA93A0E0B0E027DE1F5F33231AF4E12FBF
:1013AA00F0E007C00150A12FBB27E02F0E94560B87
:1013BA00FD01EE0FFF1F31962E0F3F1F011778F622
:1013CA00B2CF0E940E0C2A960895AA93EA81EA9354
:1013DA00EA81EA93EA81EA93AFE899DF60C0BA93B7
:1013EA00AA93B981A881109631F0FC81EB816A81B8
:1013FA0061931197E9F7EB81FC8125960895AA93E9
:10140A00E881F0E0E85CFD4FA491E9810E94C00BFD
:10141A0022960895AA931A93E981E63011F0E930E9
:10142A0019F41091750209C0E83019F41091760286
:10143A0004C0E730A1F410918502E0917602E03011
:10144A0049F0103019F0EFEF188129C0EA81E095D0
:10145A00188125C0103019F4E0E0188120C0EA8113
:10146A0018811DC0BA93AA93EA81E13021F4E88178
:10147A00F981E49114C0E23029F4A881B9810E946B
:10148A00E60B0DC0E33041F4A881B981E0918E02E8
:10149A00F0918F02099503C0A881B981EC91239636
:1014AA000895AA93EB81E03029F4E881A981BA81F1
:1014BA00EC9314C0E23031F4E881A981BA810E9428
:1014CA00F20B0CC0E33051F4E981FA81FA93EA9302
:1014DA00AA81E0919002F0919102099524960895CB
:1014EA00A2E3B0E00C94B20BA0EDB7E00E94B20BFD
:1014FA000C943603EA93EBE5EA93A0E20C94030713
:10150A00EA93A0E20C940307EA93A7E00E94030778
:10151A00EBE3EA930895EA93EEE3EA93A3E00C94EB
:10152A000307E09375020A932A93A4E00C94EA094C
:10153A00EE81FF810E0F1F1FAE81BF81A00FB11F69
:10154A00AF37E0E0BE070895AE81BF81F901EA1B1B
:10155A00FB0BDF010E94030C0895AE81BF810A1BB9
:10156A001B0BF801EA1BFB0BDF010E94030C089519
:10157A00C198EFEFEABBE881EBBB0E9452020C94E0
:10158A005602E695E695E695AE2F0C9491020E94D6
:10159A00B5020C94A002F0E0AE0FBF1F0895F0E070
:1015AA000E94DA0B0895EA0FFB1FEE83FF8308956A
:1015BA00EC85EA93EF81F8853196EF83F8873197C6
:1015CA00FA93EA93A0E00C94560AEC85EA93EF8129
:1015DA00F8853196EF83F88731970895662777273C
:1015EA00DF01CB010C94370A5A93AA850C940F0A8F
:1015FA000A930395E889EA935A9308950A930395FF
:10160A00A8890E94C702E42308955E2FEC85EA9315
:10161A00AF81B885882799270E94370A1E2E089518
:10162A000A930395E889EA93EE85EA93E985FA85B0
:10163A003196E987FA873197D1CFF0E0EA0FFB1F9D
:10164A000895BA93AA93A881B9810E94030C0895B8
:10165A000E94070CE0917902F0917A020895F8014C
:10166A000F5F1F4F04900895E0917902F0917A027A
:10167A003196E4910895EA93E0E0EA93E0E0F0E03D
:10168A00FA93EA93A8E00C94D503AE81AF5FAE83D8
:10169A00A150E0917D02AE1708953A93AA850C9461
:1016AA00DB06F0E0AE1BBF0B0895A985BA85EA0FE9
:1016BA00FB1FE987FA870895E985FA85EA1BFB0B80
:1016CA00E987FA870895EA1BFB0B0F01DF01EB8517
:1016DA00FC85AE17BF070895E985FA85E015F1057F
:1016EA0008950A93A22F0C94DC050A93A22FA25004
:1016FA000E948003AE2FEE81EA170895EB85FC85E0
:10170A00AE17BF070895E985FA85EA17FB0708951A
:10171A000A93A42F0E94DC05AF81A23008950A9390
:10172A00A42FAE5F0E948003AE2FEE81EA170895C0
:10173A00EA93A22F0E948003AE2FEE81EA17089542
:10174A00EA93A42F0E948003AE2FEE81EA17089530
:10175A00E985EA93E985EA930895109639F080EDD0
:10176A0097E00197F1F7A8951197C9F70895F195B0
:10177A00E195F0400895EE230E2EEA2F19F0EE0FB0
:10178A000A94E9F70895EE230E2EEA2F19F0E6954A
:10179A000A94E9F70895EE0FFF1FEE0FFF1F089551
:1017AA00F595E795F595E7950895FA9FF02DEB9F46
:1017BA00F00DEA9FE02DF10D0895ED91FC9111973E
:1017CA000895E199FECFFF93FFB7F894AEBBBFBB74
:1017DA00E09AEDB3FFBFFF910895E19B02C0A8957F
:1017EA00FCCF9FB7F894AEBBBFBBE09A8DB3E817A6
:1017FA0019F0EDBBE29AE19A9FBF089500240A16F8
:10180A000B0608955A934A933A932A931A930A9382
:10181A0008955D814C813B812A811981088108954F
:00000001FF
