:080000000C944D000C9400006B
:100008000C9400000C9400000C9400000C94000068
:100018000C9400000C9400000C9400000C94000058
:100028000C9400000C9400000C9400000C94000048
:100038000C9400000C9400000C9400000C94000038
:100048000C9400000C9400000C94000054494D4599
:100058003E2000444154453E2000323000416C6946
:100068002053656461676869000080C001002D4EF7
:10007800414E00494E460000070060025400070048
:1000880067025B0002007802720001007E027400C1
:100098000000F894EE27ECBBF1E0FBBFEBBFE5BF37
:1000A800F8E1F1BDE1BD8DE0A2E0BB27ED938A95B3
:1000B800E9F780E098E0A0E6ED930197E9F7E0E83A
:1000C800F0E085919591009761F0A591B591059023
:1000D8001590BF01F00105900D920197E1F7FB0122
:1000E800F0CFEFE5EDBFE8E0EEBFC0E6D2E00C945C
:1000F8007D00E0E0EBBBEABBE8BBE7BBE5BBE4BBEC
:10010800E2BBE1BB0E948902E0E0EA93EA93A0E047
:1001180091D0A4E154D10AD1A0E6B2E02ED1E0E01A
:10012800EA93A1E0F4D0A7E6B2E027D1E5E0F0E059
:10013800FA93EA93E4E0F0E0FA93EA93A7E0B0E0F8
:1001480092D0E6E0F0E0FA93EA93E9E0F0E0FA937F
:10015800EA93E8E0F0E0FA93EA93ABE0B0E09CD0F1
:10016800E6E0EA93A0E0D3D0E52D0E944D02D60147
:100178000E941202D6010E945102E42D0E944D02F3
:10018800A0916E02B0916F020E941202A0916E02BD
:10019800B0916F020E945102E72D0E944D02A0917A
:1001A8007002B09171020E941202A0917002B09187
:1001B8007102E3D0E6E0EA93A1E0A9D0E92D0E941C
:1001C8004D02A0917202B09173020E941202A09196
:1001D8007202B09173020E945102E82D0E944D02F2
:1001E800A0917402B09175020E941202A09174024B
:1001F800B09175020E945102A2E6B0E0CDD0EB2D7D
:100208000E944D02A0917602B09177020E941202DC
:10021800A0917602B0917702B0D0E0E0EA93A2E034
:1002280076D0A5E6B0E0B8D0A8EEB3E00E94DA0236
:1002380072CFFFCFAA93EA81E370EA83E981E030C5
:1002480019F0EA81E061EA83E881E03019F0EA8197
:10025800E068EA830E945702A7E00E94C202AA81CE
:100268000E945C02AAC0BA93AA930E945702A0E017
:100278000E945C020E9460020E9468020E946F0253
:100288000E947502AE2F0E944002AC81BD81EC93A2
:100298000E949D0226960895BA93AA930E94570237
:1002A800A3E00E945C020E946002AE81BF81EC93D1
:1002B8000E946F02AC81BD81EC930E946F020E9484
:1002C80075020E9468020E949D0228960895AA93CA
:1002D800EBB3EF70AE2FE881E07FEA2BEBBB85E054
:1002E8008A95F1F7DA9A8DE08A95F1F7DA988DE038
:1002F8008A95F1F791C0AA93A881E9DFE881E29590
:10030800E883A881E4DF85E88A95F1F785C0AA9398
:10031800E881F0E0E858FD4FE081A981AE0FEBDFFE
:10032800A980E881E0937C0222960895A2E00E94C9
:100338007B02ACE0E0DFA1E00E947B02E0E0E0931A
:100348007C02AE2E0895AA93A881AA3021F0E091EC
:100358007D02AE1660F0E0E0EA93A0917C02AF5F08
:10036800A0937C02D4DFA881AA3009F455C0A394D5
:10037800D89AA881C0DFD8984FC0BA93AA931A9385
:10038800A981BA81ED91A983BA831E2FE03019F0B3
:10039800A12FD9DFF5CF10C0BA93AA931A93E98198
:1003A800FA813196E983FA833197E4911E2FE03080
:1003B80019F0A12FC8DFF3CF188123960895AA93C7
:1003C800EAB3E06FEABBD29AD09AD19ADA98D89871
:1003D800D998E881E0937D02E058E0937A02E881B9
:1003E800E054E0937B02A4E1B0E00E94DA020E94AC
:1003F80081020E9481020E948102A0E268DF88ECEB
:1004080090E00197F1F7A8E276DFA4E074DFA5E8B1
:1004180072DFA6E070DF8ADF21960895BA93AA9367
:10042800A991B991E991F99130962AF4E095F0955E
:1004380031966DE26D93E89480E197E20DD088EEF5
:1004480093E00AD084E6992707D08AE005D06E2F7A
:1004580010D066276C9308956627E817F90720F0EF
:100468006395E81BF90BC9F7662311F416F0089594
:100478006894605D6D930895AA93E881E295EF70A2
:10048800AE2FAA0FAA0FEA0FEE0FA991AF70EA0FCD
:100498000895F0E0FA93EA9308950E94C101A9E54E
:1004A800B0E00C94D0010E948E02A0ED0C94C20220
:1004B8000E94C2020C949D020E948E02A1ED0E942D
:1004C800C202A1E00C94A702AE2F0E944002A881AC
:1004D800B981EC930895A1E00E94A702AE2F0C9475
:1004E8004002AA81BB81EC93A0E00C94A7020E9471
:1004F8007F01A3E0B0E00C94DA02A0E30E946B0154
:1005080088EC90E00197F1F70895A898A998A09A27
:10051800A19815C0A198A098EE270000999B08956E
:10052800989B089504D0A19A02D0A09AE1E06DE0CA
:1005380007C0A19AA09A03D0A098F9DFA1986BE10F
:100548006A95F1F7089578E0A098F1DF989BFECFBF
:10055800EEDF889499990894A09AF1DFEE1F7A95B6
:1005680099F77A2F772311F4A19801C0A19ADFDFB8
:10057800A098E5DFA09ADBDFA198D9CF78E0AA0F91
:1005880010F4A19801C0A19ADADFA098D0DF989B57
:10059800FECFCDDFA09A7A9591F7A198C8DFA098F1
:1005A800CEDFE1E09999EE27A09AC1CF109639F0F5
:1005B80080ED97E00197F1F7A8951197C9F708958D
:00000001FF
