:0A0000000C9457000C9400000C94BF
:10000A0000000C9400000C9400000C9400000C9466
:10001A0000000C9400000C9400000C9400000C9456
:10002A0000000C9400000C9400000C9400000C9446
:10003A0000000C9400000C9400000C9400000C9436
:10004A0000000C9400000C940000FFFFFFFFFFFF6C
:10005A00FFFFFFFFFFFFFFFFFFFFFFF6F6F6F68049
:10006A00FFFFB6B6B6B680FFFFE3DDBE80FFFFBE78
:10007A00BEBEBEC1FFFFC9B6BE80FFFF9FE7E9EE65
:10008A00E9E79FFFFFFFFFFFFFFFFFFFFFFFFFFF04
:10009A00FFFFFFFF48004A0060025400010005000C
:1000AA009E000000F894EE27ECBBF1E0FBBFEBBF2B
:1000BA00E5BFF8E1F1BDE1BD8DE0A2E0BB27ED931C
:1000CA008A95E9F780E098E0A0E6ED930197E9F7D1
:1000DA00E0EAF0E085919591009761F0A591B591DC
:1000EA0005901590BF01F00105900D920197E1F777
:1000FA00FB01F0CFEFE5EDBFE8E0EEBFC0E6D2E0EE
:10010A000C94870048E0EFEFE4BBE0E0E5BBEFEFDB
:10011A00E1BBE0E0E2BBEFEFE7BBE0E0E8BB542F76
:10012A00A52DBB27E42FF0E00E94D600EA1BFB0BAB
:10013A003196A52FB0E0AE17BF07FCF430E034309B
:10014A00D0F411E000E00830A0F4E52FE01B2E2FD8
:10015A0012BBE22FF0E0E859FD4F11D0E2BB18BB09
:10016A00E22FF0E0E05AFD4F0AD0E8BB110F0F5F13
:10017A00EACF3F5FE4CF5F5FD3CFD1CFFFCFE0813C
:10018A00E5BBA2E0B0E00E94CC00E0E00895109642
:10019A0039F080ED97E00197F1F7A8951197C9F723
:1001AA0008951B2EBF2FF12D1A2EAE2FE12D089583
:00000001FF
