:040000000C94480014
:100004000C9400000C9400000C9400000C9400006C
:100014000C9400000C9400000C94A6000C940000B6
:100024000C9400000C9400000C9400000C9400004C
:100034000C9400000C9400000C9400000C9400003C
:100044000C9400000C9400000C9400000C9400002C
:1000540017003A00000000004C434420436C6F63D7
:100064006B003A0080C00A0060025C0002006A0271
:10007400660002006C02660002006E026600080060
:10008400040054000200700268000000F894EE2797
:10009400ECBBF1E0FBBFEBBFE5BFF8E1F1BDE1BDB7
:1000A4008DE0A2E0BB27ED938A95E9F780E098E024
:1000B400A0E6ED930197E9F7EAE6F0E085919591E2
:1000C400009761F0A591B59105901590BF01F001DD
:1000D40005900D920197E1F7FB01F0CFEFE5EDBF3D
:1000E400E8E0EEBFC0E6D2E00C94D700BA93AA933E
:1000F400E881E05DCEC0BA93AA930E94000201E0B9
:1001040010E0AE81BF81EAE0F0E00E94DF01DF0190
:10011400EDDF3E2FAE81BF81EAE0F0E00E94E40112
:10012400DF01E4DF2E2FEC81EA93A02FA7D0A32FC9
:10013400C2D0EC81EF5FEA93A02FA0D0A22FBBD056
:100144000E94050228960895EA93FA93EFB7EA937A
:10015400F50131965F01EAE0F0E0EA15FB0501F5EF
:10016400AA24BB24F40131964F01ECE3F0E0E81536
:10017400F905B1F488249924F30131963F01ECE3A5
:10018400F0E0E615F70561F466247724F201319670
:100194002F01E8E1F0E0E415F50511F444245524B9
:1001A400E991EFBFF991E9911895E0E0EBBBEABB67
:1001B400E8BBE7BBE5BBE4BBE2BBE1BBEFBDECE006
:1001C400EEBDE0E0EDBDECBDE7BDE6BDECE0EBBDB2
:1001D400E5E3EABDE0E0E9BDE8BDE2E1E9BFA0E1B5
:1001E40092D0E4E0EA93A0E049D0A0E6B2E07AD06D
:1001F40078945A924A92B3D07EDFE5E0B3D0AAE66F
:10020400B2E070D07A926A92A6E0B0E074DFE8E0DF
:10021400A9D0ACE6B2E066D09A928A92A9E0B0E0A6
:100224006ADFEBE09FD0AEE6B2E05CD0ECE09AD0BF
:10023400D5015CDFAE2F3FD0DCCFFFCFAA93E5B36F
:10024400EF70AE2FE881E07FEA2BE5BB85E08A956D
:10025400F1F7AA9A8DE08A95F1F7AA988DE08A952C
:10026400F1F77BC0AA93A881E9DFE881E295E883EE
:10027400A881E4DF85E88A95F1F76FC0AA93E88145
:10028400F0E0E059FD4FE081A981AE0FEBDFD980AA
:10029400C88022960895A2E0E5DF61D00E94BE01E5
:1002A400ACE0E0DFA1E0DEDF5AD00E94BE01E0E076
:1002B400CE2EDE2E0895AA93A881AA3021F0E091D3
:1002C4007402DE1648F0E0E0EA93C394AC2DD6DF66
:1002D400A881AA3009F441C0D394A89AA881C2DFA6
:1002E400A8983BC0BA93AA931A93A981BA81ED91B5
:1002F400A983BA831E2FE03019F0A12FDCDFF5CFDC
:10030400188123960895AA93E4B3E06FE4BBA29AFC
:10031400A09AA19AAA98A898A998E881E09374024F
:10032400E058E0937202E881E054E0937302A4E1A0
:10033400B0E00E94BE0119D018D017D0A0E27EDF31
:1003440088EC90E00197F1F7A8E28CDFA4E08ADF63
:10035400A5E888DFA6E086DF9EDF21960895A3E066
:10036400B0E00895EA93A1E089CFA0E367DF88ECC9
:1003740090E00197F1F70895109639F080ED97E039
:100384000197F1F7A8951197C9F70895F195E195AB
:10039400F04008950024112490E1AA0FBB1F001C13
:1003A400111C0E1A1F0A18F40E0E1F1E01C0A160A4
:1003B4009A9599F7FD01D001089512D0EBDF0EF460
:1003C400E5DF0895E894B7FF04C0A095B0951196B1
:1003D4006894F7FDDBDFDEDFFD010EF4D7DF08955F
:1003E400E894F7FF02C0D2DF6894B7FF06C0A09577
:1003F400B095119600F8039400FA08953A932A935D
:100404001A930A9308953B812A81198108810895DA
:00000001FF
