:0E0000000C9443000C9400000C9400000C942F
:10000E0000000C9400000C9400000C9400000C9462
:10001E0000000C9400000C9400000C9400000C9452
:10002E0000000C9400000C9400000C9400000C9442
:10003E0000000C9400000C9400000C9400000C9432
:10004E0000000C9400004C4D33352053656E736FD9
:10005E00720054656D70203A0043000080C00C00A1
:10006E006002540007006C02600002007302670019
:10007E00020075026A000000F894EE27ECBBF1E076
:10008E00FBBFEBBFE5BFF8E1F1BDE1BD8DE0A2E046
:10009E00BB27ED938A95E9F780E098E0A0E6ED9313
:1000AE000197E9F7ECE6F0E085919591009761F004
:1000BE00A591B59105901590BF01F00105900D9297
:1000CE000197E1F7FB01F0CFEFE5EDBFE8E0EEBF02
:1000DE00C0E6D2E00C94AF00BA93AA93E881E05D3B
:1000EE00A1C0BA93AA930E94B50201E010E0AE81BE
:1000FE00BF81EAE0F0E00E949402DF01EDDF3E2FC7
:10010E00AE81BF81EAE0F0E00E949902DF01E4DFF8
:10011E002E2FEC81EA93A02F7AD0A32F93D0EC81CF
:10012E00EF5FEA93A02F73D0A22F8CD00E94BA0259
:10013E0028960895AA93E881E064E7B98BE18A9541
:10014E00F1F7369A349BFECF349AE4B1F5B1C6C0BE
:10015E00E0E0EBBBEABBE8BBE7BBE5BBE4BBE2BB65
:10016E00E1BB389AE5E8E6B9E0E0E0BFA0E18FD068
:10017E00E3E0EA93A0E04BD0A0E6B2E077D0E2E075
:10018E00AFD0ACE6B2E072D0ECE0AAD0AFED5AD070
:10019E00EDE0A6D0A3E7B2E069D0A0E0CBDF8F01FF
:1001AE00F8010E947C020E94F401A6E9BBE58AEFE9
:1001BE009EE30E9422020E94BD018F011A930A93B0
:1001CE00A9E0B0E08EDFA4E68ED0E7CFFFCFAA93F2
:1001DE00E5B3EF70AE2FE881E07FEA2BE5BB85E05B
:1001EE008A95F1F7AA9A8DE08A95F1F7AA988DE093
:1001FE008A95F1F773C0AA93A881E9DFE881E295A9
:10020E00E883A881E4DF85E88A95F1F767C0AA93B1
:10021E00E881F0E0EB58FD4FE081A981AE0FEBDFF6
:10022E005980488022960895A2E0E5DFA3E05BD0D6
:10023E00ACE0E1DFA1E0DFDFA3E055D0E0E04E2E41
:10024E005E2E0895AA93A881AA3011F0571440F09B
:10025E00E0E0EA934394A42DDADFA881AA30F1F10D
:10026E005394A89AA881C7DFA89838C0BA93AA93C6
:10027E001A93A981BA81ED91A983BA831E2FE0301A
:10028E0019F0A12FDFDFF5CF188123960895AA93D9
:10029E00E4B3E06FE4BBA29AA09AA19AAA98A89898
:1002AE00A9987880E881E058E0937702E881E054DD
:1002BE00E0937802A4E117D019D018D017D0A0E29D
:1002CE0086DF88EC90E00197F1F7A8E294DFA4E0D6
:1002DE0092DFA5E890DFA6E08EDFA6DF21960895D7
:1002EE00EA93A1E094CFB0E00C948401A0E36FDF19
:1002FE0088EC90E00197F1F70895109639F080EDB3
:10030E0097E00197F1F7A8951197C9F7089555232E
:10031E0042F4503811F4E0FF04C03196691F791F82
:10032E006BF050E8572711F45F9373C05F3F31F0C5
:10033E00660F000C57956795752F08955F930020F3
:10034E000AF073C06CC050E8192E1522880F991F41
:10035E009527550F879550E8072E0522660F771FB4
:10036E007527550F67950895689401C0E8945F93BB
:10037E00F2DF703818F07F3F08F44BC056E1571B80
:10038E00AAF4519558300EF4593030F0EFEFFFEFDC
:10039E006FEF7FE777F91AC077275523B9F0EE0F85
:1003AE00FF1F661F771F5A95D1F710C07727583059
:1003BE0028F0EF2FF62F672F5850F9CF552331F035
:1003CE0076956795F795E7955A95D1F700200AF43B
:1003DE0084D05F910895689401C0E894309760408E
:1003EE007040B1F0002426F0772312F4009475D0FB
:1003FE00172E7EE1112032F07A95EE0FFF1F661F49
:10040E00111CF9CFEF2FF62F612D5F938ADF5F91CD
:10041E000895EE27FF27662777275F910895EFEF60
:10042E00FFEF6FE77FEF5F910895EFEFFFEF6FE75D
:10043E007FE75F9108955F9386DF703851F39038B0
:10044E0041F301240894791F23F41CF300203AF39E
:10045E00ECCF0F921F932F933F934F931127222789
:10046E009927689FA0018F9F302D410D591F6B9FBB
:10047E00300D411D591F8E9F27D0BF9F25D06A9FDB
:10048E0023D0BE9F1DD0AF9F1BD0AE9F110D291F35
:10049E00391F491F591FE32FF42F652F522F4F91EC
:1004AE003F912F911F910F9066232AF0550FEE1F4B
:1004BE00FF1F661F02C073954BF229DF5F910895EF
:1004CE00100D211D391F02C0200D311D491F591F4E
:1004DE000895F195E195F0400895F0956095709529
:1004EE00E195FF4F6F4F7F4F08956F2F660F660B8D
:1004FE00762F08950024112490E1AA0FBB1F001C33
:10050E00111C0E1A1F0A18F40E0E1F1E01C0A16038
:10051E009A9599F7FD01D001089512D0EBDF0EF4F4
:10052E00D8DF0895E894B7FF04C0A095B095119652
:10053E006894F7FDCEDFDEDFFD010EF4CADF08950D
:10054E00E894F7FF02C0C5DF6894B7FF06C0A09518
:10055E00B095119600F8039400FA08953A932A93F1
:10056E001A930A9308953B812A811981088108956F
:00000001FF
